:020000041000EA
:1000000000B5324B212058609868022188439860DF
:10001000D860186158612E4B002199600221596106
:100020000121F02299502B49196001219960352056
:1000300000F044F80222904214D00621196600F024
:1000400034F8196E01211966002018661A6600F04E
:100050002CF8196E196E196E052000F02FF8012189
:100060000842F9D1002199601B49196000215960AB
:100070001A491B48016001219960EB211966A021F2
:10008000196600F012F800219960164914480160C1
:100090000121996001BC002800D000471248134993
:1000A000086003C880F30888084703B5996A0420EC
:1000B0000142FBD001200142F8D103BD02B5186610
:1000C0001866FFF7F2FF186E186E02BD00000240BE
:1000D000000000180000070000035F00212200005C
:1000E000F4000018222000A00001001008ED00E03C
:1000F00000000000000000000000000074B24E7A12
:1001000000200420F7010010C3010010C5010010F9
:10011000C1010010C1010010C1010010C101001097
:10012000C1010010C1010010C1010010C701001081
:10013000C1010010C1010010C9010010CB01001065
:10014000CD010010CD010010CD010010CD01001037
:10015000CD010010CD010010CD0100106903002079
:10016000250A0020CD010010CD0100107D0B0020DC
:10017000CD010010CD010010CD010010CD01001007
:10018000CD010010CD010010CD010010CD010010F7
:10019000CD010010CD010010CD010010CD010010E7
:1001A000CD010010CD010010CD010010CD010010D7
:1001B000CD010010CD010010CD010010CD010010C7
:1001C00000BE00BE00BE00BE00BE00BEEFF3058054
:1001D000103800BEF2EB8871C49E0310F49E031029
:1001E0003402001090A31AE700201F49086006C8D7
:1001F00081F3088810471D48006800282FD10DA4FE
:100200000ECC002902D000F012F8F9E71849194A7B
:10021000002000E001C19142FCD1174988471749ED
:1002200088471749884700BEFDE701C901C29A42C5
:10023000FBD37047F49E0310C00000207C81002097
:10024000B01F04100000042000000420B01F0410A0
:10025000001004200010042000000000704709482E
:100260001EF08EFC0047000008ED00E0000000D00A
:100270008081002028B9012081D80110910300104D
:100280003FD801105756000006005250ABB36053E0
:10029000007A031006005250861C0302147A0310E1
:1002A000060052505422A29D207A0310050052509D
:1002B000DE65F468B01F0410F8B5C0460448054B6D
:1002C00010B5834203D0044B002B00D0984710BDDB
:1002D0007C8100207C810020000000000648074946
:1002E000091A8910CB0F591810B5491003D0044BC7
:1002F000002B00D0984710BD7C8100207C8100201D
:100300000000000010B5074C2378002B09D1FFF73F
:10031000D5FF054B002B02D0044800E000BF0123AD
:10032000237010BD8882002000000000E02503102B
:10033000054B10B5002B03D00449054800E000BF71
:10034000FFF7CCFF10BDC046000000008C820020EB
:10035000E025031010B596221202002105481FF077
:1003600021F8054800F042F800F036F832F008F9BC
:1003700010BDC0467C1B01201074002010B5002069
:1003800020F0CEFD22F0D2FE02F036F810BD0000C3
:1003900000B585B003AB02AA01A90C481BF044FAD2
:1003A000002803D109490A481DF034FB039A029939
:1003B00001981BF0FDF91FF0BDF906481FF028FF5A
:1003C000FFF7DCFF002005B000BDC04690D0030061
:1003D000E02503105503001010B503481FF0A2FCE0
:1003E00001201FF0A5FC10BDA07D031030B5002535
:1003F000094800E001350F2D0CDC00220F2AF9DC42
:1004000006496B005B5A1B045400615A0B4308C039
:100410000132F3E730BDC0467C1701201074002084
:100420004000014BC15270471074002030B50125C7
:1004300005408C0061184C01C30F1B185B10E318BA
:100440000F211140094A934208D8002D07D0090115
:100450000748C4560F2222401143C15430BD0448FE
:10046000C2560F24A2431143C154F7E7FF95000081
:100470007C1B0120F0B5D6464F464646C0B58046A7
:100480008A469146154B1D5C0027052F20D8002673
:10049000002E13D00137F8E75346E318F000181880
:1004A0004B46F9180E4B1A78FFF7C0FF0134072CA2
:1004B00006D82B00A3401B06F8D5EDE73400F6E77D
:1004C00001239C46E044054B42469D5C0136DFE734
:1004D0001CBC90469946A246F0BDC0463C74002024
:1004E0003074002070B50600002500E0013540237F
:1004F000FF339D4209D80024EF2CF7D832002100A9
:100500002800FFF793FF0134F6E770BD014B187820
:100510007047C04630740020054B18600278054BC8
:100520001A604278044B1A608278044B1A60704754
:10053000D0930020141701201017012034740020DC
:10054000014B18707047C04630740020F0B5DE468D
:1005500057464E464546E0B583B005000C001600F0
:100560001F000CAB1B78009390421ED0B9422DD0D7
:10057000904235DD861A01235B429B46BC4233DD47
:10058000E71B01235B420193BE4231DB3B00370096
:100590001E0000239A4673009946DE1B00239846EE
:1005A00023004446B8461F0031E01E0005E032003B
:1005B00021002800FFF73AFF0134BC42F7DB03B00B
:1005C0003CBC90469946A246AB46F0BD009FB54262
:1005D000F5DA3A0021002800FFF728FF0135F6E799
:1005E000161A01239B46C9E73F1B01230193CBE762
:1005F00001239A46CFE7019B9C46674443465B0034
:10060000F61A5346012B10D05D444E440134A045E8
:10061000D5DB009A39002800FFF708FF002EF0DB39
:100620005346012BE7D15D44E8E7019B9C466744B4
:10063000EBE7F0B5CE4600B582B081460C0008A9C4
:10064000097801914A441500E7184023FF33984286
:1006500005DC002A03DBEF2C14D9EF2F1CD9EF2C7B
:1006600033DC002F31DB4023FF3399451ED8661C55
:100670007B1EB3421ADD019A31004846FFF7D6FED1
:100680000136F5E70600AE42E7DA019A21003000B4
:10069000FFF7CCFE0136F6E74E46AE42DFDA791EB2
:1006A000019A3000FFF7C2FE0136F6E74023FF3320
:1006B0009D420AD801347B1EA34206DD681E019AC2
:1006C0002100FFF7B3FE0134F5E702B004BC914608
:1006D000F0BDF0B583B006000F0008A909780091BD
:1006E00082180192FD18904201DC01901600AF4281
:1006F00002DC2B003D001F00019B002B16DB002DB0
:1007000017DBA0235B009E4200DD1E00F02F00DD02
:10071000F0274023FF33019A9A420DDDEF2D0BDDC8
:10072000002E09DC002F07DC03B0F0BD002301938D
:10073000E5E70025E5E70135AF42F5DD019CA6427E
:10074000F9DD009A29002000FFF770FE0134F6E77A
:10075000F0B585B006000F001D000CAB1C780094AE
:100760002B000392FFF7F2FE00940B9B0A9A3900CC
:100770003000FFF7EBFE00942B00039A0B990A98C8
:10078000FFF7E4FE05B0F0BDF0B5CE4600B582B08F
:1007900081460F00019354420125AD1A6D000026D9
:1007A0000AE02B00AC4201DB9E4224DA01346500F2
:1007B00001355D19002C20DA4B46181BF119019AFE
:1007C000FFF734FE4B46981B391B019AFFF72EFEAC
:1007D0004B46E018B91B019AFFF728FE4B46F0186C
:1007E000E119019AFFF722FEAE42DADB013673000F
:1007F0000133EB18D6E71D00DCE702B004BC9146DC
:10080000F0BDF0B5D6464F4680B583B081460F00A7
:100810000193554201239B1A5B009A46002612E081
:10082000564504DB013673000133534400E0534660
:10083000554501DB9E4227DA01356A0001329A46AE
:100840009244002D22DA2C00002CE9DC4B46581B88
:100850000019F119019AFFF7E9FD4B46981B791B26
:100860000919019AFFF7E2FD4B46E818001BB91B76
:10087000019AFFF7DBFD4B46F018E919091B019AB5
:10088000FFF7D4FD0134DFE79A46DAE703B00CBC8A
:1008900091469A46F0BDF0B5DE4657464E4645466F
:1008A000E0B585B080460EA80078009040468618D6
:1008B000C8188446D41710196040DD175C196C40C5
:1008C000A146012725003D403F1A67436743BF000B
:1008D0006C1C44434443A400A346BA46DA442C00AB
:1008E00044434443A244B04501DDB0463618614557
:1008F00000DC8C4649460131CC0F64186410644416
:10090000651B5243D2005B43DB00029403953D001C
:100910005F469B464446904605E00134013E5D44F7
:10092000AA44B44228DC009B01931A0002993000CB
:10093000FFF77CFD009A02992000FFF777FD009AEF
:1009400003992000FFF772FD009A03993000FFF72A
:100950006DFD53465B009F4207DB029A0132029213
:10096000039A013A03924744BA449D42D5DD534667
:100970005B00BB42D5DDD0E7039DA046029C1CE096
:1009800043465F1E019A21003800FFF74FFD731C9C
:10099000621C9346019A21001C001800FFF746FDD7
:1009A000019A29003800FFF741FD6F1E019A2900C6
:1009B0002000FFF73BFD3D005C46631B4B45DFDB42
:1009C00005B03CBC90469946A246AB46F0BDF0B59A
:1009D000DE4657464E464546E0B585B00EAC247817
:1009E0000094D60FB6187610DA0FD218531002936F
:1009F0001A005A43924632007243934652465C466E
:100A0000624303928146B1449846884474424D46FD
:100A1000474605E06019009A3900FFF707FD0134E9
:100A2000B442F7DBA946B8460125002301931CE038
:100A30008A468346331B019366424346A0461C0008
:100A40000CE04B46F718611B009A3800FFF7EEFCEC
:100A50002919009A3800FFF7E9FC0136B045F0DAB1
:100A600023004446984601352600029B9D4212DC35
:100A7000019C013C341B51465846039F002CD7DD96
:100A8000230063434B432A006A4342439B18BB4203
:100A9000CEDD013CF2E705B03CBC90469946A2464B
:100AA000AB46F0BDF0B5C64600B582B005000E00FD
:100AB0000191904627F092F8071E18D000240CE010
:100AC000203B5A00D3185800033042463100FFF74C
:100AD000D1FC094B1B68F6180134BC4207D22B5DD0
:100AE0000A2BEDD1043B9C46E044019EF4E702B0A2
:100AF00004BC9046F0BDC0461417012010B5203844
:100B000043001B1858000330FFF7B4FC10BD000071
:100B1000024B1860024B19607047C046081701204D
:100B20000C170120014B18607047C046D48E00207E
:100B300010B5054B1878FFF7D5FC0023034A136066
:100B4000034A136010BDC046D48E00200817012050
:100B50000C17012030B583B0074B1C68074B1D688C
:100B6000FFF7D4FC00900623012229002000FFF7A4
:100B7000B0FD03B030BDC046081701200C1701209E
:100B800000B583B0064B1968064B1868064B1B78F6
:100B9000009306230122FFF79CFD03B000BDC04671
:100BA0000C17012008170120D48E002030B583B027
:100BB000041E01D103B030BD1A4B19681A4B1868D6
:100BC0001A4B1B78009306230422FFF782FD0A2CA0
:100BD00015D01F2C1BD8144B1A689E235B009A4219
:100BE00006D9104A1368063313600F4B00221A60AF
:100BF0000C4B1B68EA2BDDD9FFF79AFFDAE70A4BAB
:100C000000221A60074A136806331360E3E7054BB6
:100C10001A68054D29682000FFF770FF2B68043320
:100C20002B60D8E70C17012008170120D48E002074
:100C300070B5060026F0D2FF05000024AC4204D2B5
:100C4000305DFFF7B3FF0134F8E770BD10B582B037
:100C500004000B4B00221A60A0320A4B19680A4BA1
:100C60001B780093062352000020FFF732FD07484F
:100C7000FFF7DEFF2000FFF7DBFF02B010BDC0462C
:100C8000081701200C170120D48E00201426031011
:100C900010B50400FFF774FFA000044B1A689446D7
:100CA00060441860FFF756FF10BDC04608170120CA
:100CB000F0B5C64600B50500002600274DE000232C
:100CC000052B07D82D4AD2189278914225D00133AE
:100CD000DBB2F5E70023002B46D12A7822331340FC
:100CE000591E8B41DBB29846112111404B1E994190
:100CF000C9B2404600F0F4F92B19987800F0DAF9FF
:100D0000002F31D12C19A27852001D4B9B1842465E
:100D1000985C00F0F5F9013726E00123DBE70023BA
:100D2000002B14D00134E4B26B2C14D8200000F056
:100D300077F90128F6D10023052BF0D8EA1892782C
:100D4000944202D00133DBB2F6E70123E8E720004A
:100D500000F0BAF9E6E70136F6B2052E06D83400FF
:100D6000AB1999780029AAD10024DDE708222900CF
:100D700002481EF01DFB04BC9046F0BD9C160120ED
:100D800018260310F0B5C64600B582B004000078FE
:100D9000124B98461F7801231A003A4094460226C7
:100DA0003200024004252900014018403E400196CF
:100DB0003D400095634600F0BBF90322A256022194
:100DC00061560120205600F0A5F905222100404679
:100DD0001EF0EEFA02B004BC9046F0BDA41601204D
:100DE000F8B5174CCB005D186800055D2418A61CEB
:100DF000012D0BD017780023AB420CD2990071184B
:100E00000C78BC4208D00133DBB2F5E7A378002BA5
:100E1000F0D1310001E000210132002902D04B88DD
:100E2000012B00D0F8BD4B78022B05D0062BF9D151
:100E30001000FFF73DFFF5E71000FFF7A3FFF1E714
:100E400034160120F0B583B005000C000092019328
:100E500021F0EEFC060000F021F9002E05D0210063
:100E6000280021F0F5FC03B0F0BD074EE7003B1968
:100E7000580030180230019B009A042121F051FEE5
:100E80003B195A009055EAE73416012010B500F0DE
:100E90000BF910BDF8B504000D0016001F0021F07D
:100EA000C7FC012808D002280ED03B0032002900E0
:100EB0002000FFF795FF02E03000FFF7F9FE290060
:100EC000200021F0C5FCF8BD3000FFF75BFFF6E71E
:100ED00070B506000D000024AC4206D222F041FE9F
:100EE000002802DD30550134F6E7200070BD30B532
:100EF00093B001AC40212000FFF7EAFF050000237A
:100F000023540024002C01D013B030BD200021F068
:100F100047F8002801D0002D02D10134E4B2F1E7F6
:100F20002A0001A9200021F06DF8200021F084F8AA
:100F3000F3E710B592B001AC4022210021F096F801
:100F4000002323542000FFF773FE12B010BD10B52C
:100F500084B004000023039303A920F0FFFF0722BD
:100F6000002101A81EF01EFA01A9200021F02CF892
:100F700004B010BD00B583B00023019301A920F097
:100F8000EDFF03B000BD10B500201FF0C9FF10BD7C
:100F900010B5002305E01C490020C85408E00133C7
:100FA000DBB2022B0ED81A001749C95C0129F2D016
:100FB0001649895C0129F2D1002115488154134852
:100FC0008154ECE7002305E012490020C85408E0F2
:100FD0000133DBB26B2B0ED81A000E49C95C012914
:100FE000F2D00D49895C0129F2D100210A488154CF
:100FF0000A488154ECE701200021404220F0A2FA87
:10100000FFF775FF10BDC04680B10120F0B101208F
:101010007CB1012084B1012068B20120F8B1012027
:10102000014B185C7047C046F8B10120014B185CB9
:101030007047C04684B10120014B185C7047C04620
:1010400068B20120024B187800221A707047C0461F
:1010500077170120014B0020185670476D170120AB
:10106000014B0020185670476E170120014B0020DD
:10107000185670476C170120014B185C7047C0462A
:101080007CB10120014B185C7047C04680B1012043
:10109000014B185C7047C046F0B10120014B0122A2
:1010A0001A70704774170120014B00221A707047A4
:1010B000741701200123024A1354024A1354704743
:1010C00084B10120F8B10120034B01221A54034BD3
:1010D00000221A547047C04668B20120F8B10120BE
:1010E000024B1870024B19707047C04676170120EA
:1010F00075170120014B18787047C04675170120FD
:101100000D2802D0024B187070470338FAE7C0462A
:1011100077170120034B1870034B1970034B1A709B
:101120007047C0466D1701206E1701206C17012013
:10113000F0B505AC257806AC2478002806D0002B45
:1011400004D101261A4F3E701A4F3E70002807D175
:10115000002B05D0184B01301870164B002018706A
:10116000002906D0002D04D10123114843701148F5
:101170004370002907D1002D05D00F4B0131597064
:101180000C4B00215970002A06D0002C04D10123F9
:1011900007498B7007498B70002A07D1002C05D0B6
:1011A000054B01329A70034B00229A70F0BDC04685
:1011B00080B101207CB10120F0B1012070B50400A4
:1011C0000022012101F0AEFCC0B2FFF761FF050073
:1011D00002214942200001F0E8FA2A000023200001
:1011E00001F081FD012070BDF0B5CE4600B582B0A2
:1011F00004000022012101F095FCCB171E001F0006
:101200007040020071400B00921BBB41FF218946D8
:101210000A40724010003100801BB941C00885B2FD
:10122000002202210194200001F07CFCCB171E005B
:101230001F007040020071400B00921BBB414946E9
:101240000A40724010003100801BB941C00884B2CE
:1012500000220321019801F065FCCB171E001F003E
:101260007040020071400B00921BBB4149460A408E
:10127000724010003100801BB941C00886B20221C3
:101280004942019F380001F090FAA0010543F6029F
:101290002A003243D317380001F025FD012002B0A7
:1012A00004BC9146F0BD70B504000022012101F09C
:1012B00039FCC0B2FFF7E0FE0500022149422000E0
:1012C00001F073FA2A000023200001F00CFD012038
:1012D00070BD70B504000022012101F023FCC0B2F2
:1012E000FFF7D0FE050002214942200001F05DFA1F
:1012F0002A000023200001F0F6FC012070BD10B58B
:101300000400FFF7B3FE0200C317200001F0EBFC5E
:10131000012010BD10B50400FFF7A2FE0200C317A4
:10132000200001F0E0FC012010BD10B50400FFF723
:1013300091FE0200C317200001F0D5FC012010BD72
:1013400070B504000022012101F0ECFBC0B2FFF7F0
:1013500073FE050002214942200001F026FA2A000E
:101360000023200001F0BFFC012070BD70B5040017
:101370000022012101F0D6FBC0B2FFF751FE0500AB
:1013800002214942200001F010FA2A000023200027
:1013900001F0A9FC012070BD70B5040000220121FC
:1013A00001F0C0FBC0B2FFF741FE05000221494237
:1013B000200001F0FAF92A000023200001F093FC3C
:1013C000012070BD10B50221494201F0EEF9FFF78E
:1013D000DFFD002010BD10B50221494201F0E5F902
:1013E000FFF7D1FD002010BD70B505001BF0AAFC71
:1013F000002912DB17D0FA22920000231DF052FCC4
:10140000040002214942280001F0CFF9E31722002D
:10141000280001F068FC012070BD064B064A3F2100
:1014200006481CF00FFAFA2189001DF0FDFB0400AC
:10143000E7E7C04610280310F82703102C280310F4
:10144000F0B585B004000022012101F06BFB029091
:1014500000220221200001F065FB039000220321FD
:10146000200001F05FFB060000220421200001F0B3
:1014700059FB070000220521200001F053FB050065
:1014800002214942200001F090F9EB171B0FEA18E6
:101490000F201040C01AC0B200903B0032000399E8
:1014A0000298FFF716F9002005B0F0BD70B50500F1
:1014B0000022012101F036FB0400022149422800EC
:1014C00001F073F9E3171B0FE4180F202040C01A36
:1014D000C0B2FFF735F8002070BDF0B585B0070049
:1014E0000022012101F04DFB029000220221380070
:1014F00001F018FB039000220321380001F012FBD9
:10150000060000220421380001F00CFB0400002238
:101510000521380001F006FB050002214942380090
:1015200001F043F9E217120FA0180F231840841A94
:10153000EA17120FAF181F40BF1A029826F04EFB91
:101540008200FFB2009706233100039D2800FFF7B9
:10155000C0F8E0B2FEF7F4FF320029000298FFF76E
:10156000A1FA002005B0F0BDF0B583B0070000225D
:10157000012101F006FB019000220221380001F058
:10158000D1FA050000220321380001F0CBFA060051
:1015900000220421380001F0C5FA0400022149426A
:1015A000380001F002F9E3171B0FE2180F2010407A
:1015B000C01AC0B2FEF7C4FF320029000198FFF73D
:1015C00071FA002003B0F0BDF0B585B00400002230
:1015D000012101F0A7FA029000220221200001F06F
:1015E000A1FA039000220321200001F09BFA0600DB
:1015F00000220421200001F095FA070000220521B5
:10160000200001F08FFA050002214942200001F07C
:10161000CCF8EB171B0FEA180F201040C01AC0B20D
:1016200000903B00320003990298FFF7D0F90020A8
:1016300005B0F0BDF0B585B004000022012101F035
:1016400071FA029000220221200001F06BFA03904F
:1016500000220321200001F065FA06000022042187
:10166000200001F05FFA070000220521200001F0B0
:1016700059FA050002214942200001F096F8EB17C3
:101680001B0FEA180F201040C01AC0B200903B0098
:10169000320003990298FFF7FEF8002005B0F0BD74
:1016A000F0B583B007000022012101F03BFA019060
:1016B00000220221380001F035FA05000022032142
:1016C000380001F02FFA060000220421380001F052
:1016D00029FA040002214942380001F066F8E217B5
:1016E000120FA1180F230B409B1ADBB23200290006
:1016F0000198FFF786F8002003B0F0BDF0B583B085
:1017000007000022012101F00DFA019000220221C0
:10171000380001F007FA050000220321380001F02B
:1017200001FA060000220421380001F0FBF9040050
:1017300002214942380001F038F8E217120FA118CF
:101740000F230B409B1ADBB2320029000198FFF7F0
:101750001BF8002003B0F0BDF0B589B004000022F2
:10176000012101F0DFF9049000220221200001F0A4
:10177000D9F9059000220321200001F0D3F9069049
:1017800000220421200001F0CDF90790002205215C
:10179000200001F0C7F9050000220621200001F019
:1017A000C1F9060000220721200001F0BBF9070063
:1017B00002214942200000F0F8FFFB171B0FFA1826
:1017C0000F201040C01AC0B2029001960095079BEE
:1017D000069A05990498FEF7BBFF002009B0F0BDFA
:1017E000F0B585B004000022012101F09BF90290C0
:1017F00000220221200001F095F90390002203212C
:10180000200001F08FF9060000220421200001F0E1
:1018100089F9070000220521200001F083F9050065
:1018200002214942200000F0C0FFEB171B0FEA180D
:101830000F201040C01AC0B200903B003200039944
:101840000298FEF7F6FE002005B0F0BDF0B585B0B9
:1018500004000022012101F065F90290002202211A
:10186000200001F05FF9039000220321200001F025
:1018700059F9060000220421200001F053F9070065
:1018800000220521200001F04DF905000221494206
:10189000200000F08AFFEB171B0FEA180F20104002
:1018A000C01AC0B200903B00320003990298FEF7C4
:1018B0004DFE002005B0F0BD70B5050000220121ED
:1018C00001F030F9040002214942280000F06DFFC8
:1018D000E3171B0FE4180F202040C01AC0B2FFF717
:1018E00021F9002070BD10B504000022012101F093
:1018F00019F9C3171B0FC2180F201040C01AC0B22D
:10190000FFF710F902214942200000F04EFFFFF7D7
:101910000FF9002010BD70B506000022012101F072
:1019200001F9040000220221300001F0FBF805005B
:1019300002214942300000F038FFA9B2E0B2FEF7C0
:101940006FFDFEF753FD002070BDF8B507000022C3
:10195000012101F0E7F8040000220221380001F023
:10196000E1F8050000220321380001F0DBF8060051
:1019700002214942380000F018FFF3171B0FF61838
:101980000F223240D21A29002000FEF74FFD00201E
:10199000F8BD000010B503481DF0F2F80300002167
:1019A000002098475542000010B500220021002079
:1019B0001BF0ECFE002010BD10B50400002286498B
:1019C00001F007FA8549200001F0AAFB00228449B2
:1019D000200001F0FEF98349200001F0A1FB002264
:1019E0008149200001F0F5F98049200001F098FBC1
:1019F00000227F49200001F0ECF97E49200001F02F
:101A00008FFB00227C49200001F0E3F97B49200094
:101A100001F086FB00227A49200001F0DAF97949C9
:101A2000200001F07DFB00227749200001F0D1F970
:101A30007649200001F074FB00227549200001F076
:101A4000C8F97449200001F06BFB002272492000A4
:101A500001F0BFF97149200001F062FB00227049DA
:101A6000200001F0B6F96F49200001F059FB002277
:101A70006D49200001F0ADF96C49200001F050FBE8
:101A800000226B49200001F0A4F96A49200001F00E
:101A900047FB00226849200001F09BF967492000BC
:101AA00001F03EFB00226649200001F092F96549F1
:101AB000200001F035FB00226349200001F089F984
:101AC0006249200001F02CFB00226149200001F056
:101AD00080F96049200001F023FB00225E492000CC
:101AE00001F077F95D49200001F01AFB00225C4902
:101AF000200001F06EF95B49200001F011FB00228B
:101B00005949200001F065F95849200001F008FB0F
:101B100000225749200001F05CF95649200001F0ED
:101B2000FFFA00225449200001F053F953492000E4
:101B300001F0F6FA00225249200001F04AF9514919
:101B4000200001F0EDFA00224F49200001F041F998
:101B50004E49200001F0E4FA00224D49200001F036
:101B600038F94C49200001F0DBFA00224A492000F4
:101B700001F02FF94949200001F0D2FA002248492A
:101B8000200001F026F94749200001F0C9FA00229F
:101B90004549200001F01DF94449200001F0C0FA38
:101BA00000224349200001F014F94249200001F0CD
:101BB000B7FA00224049200001F00BF93F4920000C
:101BC00001F0AEFA00223E49200001F002F93D4941
:101BD000200001F0A5FA10BDA91900101827031064
:101BE0009519001020270310AD14001028270310AA
:101BF000B9180010302703104B19001038270310B4
:101C0000171900103C270310E71800104027031095
:101C10004D18001044270310E11700104C27031043
:101C200041140010542703105917001060270310A7
:101C3000FD16001064270310A11600106C27031076
:101C40003516001078270310C915001080270310DF
:101C5000691500108C270310DB1400109427031063
:101C6000E9130010A0270310E9110010A8270310A2
:101C7000D7130010AC270310C5130010B8270310AA
:101C800099130010C42703106D130010CC27031004
:101C900041130010D42703102B130010DC2703106E
:101CA00015130010E0270310FF120010E4270310A3
:101CB000D3120010EC270310A7120010F027031016
:101CC000BD110010F427031010B53A20FFF7AEF94C
:101CD000002805D13B20FFF7A9F9002803D110BD4A
:101CE00000F04EF8F6E700F0ABFAF8E7F0B583B095
:101CF00002F02AFF1C4C206009F038FF1B4D290020
:101D0000206802F0FFF92068FFF756FE184B1E68A6
:101D1000300025F063FF02003100280002F07DFD55
:101D2000280002F0C9F9134E01213200494220680F
:101D300000F027FF010032682068002600960E4B55
:101D400002F094FA0D4F3860206801960096002347
:101D50000022002101F02AFB38602068290002F0EF
:101D6000D1F903B0F0BDC046D8B20120E0B20120E5
:101D700038740020F4B4012070280310F8B4012056
:101D800010B50B20FEF7DCFB0120FEF7CBFE0A4B63
:101D900000221A7000210020FEF7BAFE0120FEF793
:101DA000C7FE064C2000FEF751FF200025F016FF6D
:101DB000034B186010BDC0467117012040900020F1
:101DC0009C930020F0B583B0FFF7E2F8FFF73AF9F3
:101DD000C34B18700D281BD02A20FFF727F90028C5
:101DE00007D0C04B1B78002B03D0BF4B19680029CC
:101DF00011D14C20FFF71AF9002838D0BA4B1C68D3
:101E0000B84B1B5D002B1BD1FFF75EFF03B0F0BD8D
:101E10000A221A70E0E7481EB24C0919001924F092
:101E200027FFB14D2B68013B2B602000FEF70EFF12
:101E3000200025F0D3FE2B68181AFEF729FFD8E7FB
:101E4000A84EA5190134280025F0C8FE421CA1198E
:101E5000280023F039FE3000FEF7F8FE300025F0B0
:101E6000BDFEA14B1B68181AFEF712FFCCE7172026
:101E7000FFF7DCF8002803D0FFF73CF9002856D123
:101E80000F20FFF7D3F8002803D0FFF733F900281D
:101E900054D10820FFF7CAF8002803D0FFF72AF929
:101EA000002851D15020FFF7C1F8002804D08E4BF4
:101EB0001B68002B00D0A7E04F20FFF7B7F80028E1
:101EC00007D0884825F08AFE874B1B68984200D9C6
:101ED000A2E05220FFF7AAF8002800D1A7E0834A29
:101EE0001368013B1360002B00DA9CE07F4B1868FD
:101EF0004E2343437E4A9B5C002B05D101300A21CF
:101F00001CF06AFE794B1960784B19684E235943CF
:101F1000774BC918734C200024F0AAFE2000FEF76E
:101F200095FE200025F05AFE6F4B18606CE7714853
:101F3000FEF77EFE7048FEF77BFE65E7FEF7F8FDD4
:101F40006D48FEF775FE5FE70A20FEF72FFE6B4C2B
:101F50006848206025F042FEA060200002F0ACF846
:101F6000674D0121674C2A004942206800F009FEB4
:101F700001002A68206800240094634B02F076F97F
:101F8000624B1860624B1C6000281ED001215D4B23
:101F900018680022494200F0F4FD04005D48FEF795
:101FA00047FE2000FEF744FE5B48FEF741FE02219B
:101FB000544C4942206800F0F8FB20684F4902F079
:101FC000A1F84D48FEF734FE1EE74E4B186800237B
:101FD000019300930022002101F0E8F94B4B1860B7
:101FE0000028E4D00121474B18680022494200F044
:101FF000C8FD04004948FEF71BFE2000FEF718FE4E
:102000004548FEF715FED2E7013B374A1360012031
:102010004042FEF73DFEF7E60133334A13600120EC
:10202000FEF736FEF0E6130009221A605EE7512043
:10203000FEF7FCFF002822D02C4B1B68384A1268A0
:10204000934202D00133294A1360284B1B68092BA5
:1020500002DD264B00221A60244B19684E23594397
:10206000234BC9181F4C200024F002FE2000FEF76D
:10207000EDFD200025F0B2FD1B4B1860C4E62820C2
:10208000FEF7D4FF00284DD1154B1B78203BDBB267
:102090005E2B00D9B8E6134825F0A0FD4C2800D9E6
:1020A000B2E6114E35686F1C0E4C2D19280025F034
:1020B00095FD421C3819290023F006FD3368084AB3
:1020C0001278E254013333602000FEF7BFFD200098
:1020D00025F084FD3368181AFEF7DAFD94E6C04651
:1020E000F0B40120409000209C930020A093002099
:1020F000909000202896002014260310E0B20120C2
:10210000F4B40120D8B2012078280310F8B40120DB
:102110002816012080280310942A03109028031009
:10212000A49300200A20FEF741FD374E35684E206B
:102130006843364BC018364C210024F099FD681CCA
:102140000A211CF049FD3160324B1960324D2C6080
:10215000200025F043FDA860280001F0ADFF2F4EC0
:1021600001212F4D32004942286800F00AFD01008C
:1021700032682868002500952A4B02F077F82A4B30
:1021800018602570294B1D6000281ED00121244BAA
:1021900018680022494200F0F4FC04002448FEF7CD
:1021A00047FD2000FEF744FD2248FEF741FD0221D5
:1021B0001B4C4942206800F0F8FA2068164901F0EB
:1021C000A1FF1D48FEF734FD1EE6154B18680023DD
:1021D000019300930022002101F0E8F8124B1860EF
:1021E0000028E4D00121002249420D4B186800F07C
:1021F000C8FC04001148FEF71BFD2000FEF718FD87
:102200000C48FEF715FDD2E7A49300209090002023
:1022100040900020A0930020E0B20120F4B40120FF
:10222000D8B20120A0280310F8B401209C9300200C
:1022300080280310942A03101426031090280310FA
:1022400010B50B20FEF77CF90120FEF76BFC094B63
:1022500001221A7000210020FEF75AFCFEF768FCEC
:10226000054C2000FEF7E4FC200025F0B7FC034BF2
:10227000186010BD71170120289600202816012033
:10228000F8B5FEF785FEFEF7DDFE574B18700D28FA
:102290001AD02A20FEF7CAFE002807D0534B1B781D
:1022A000002B03D0524B1968002910D14C20FEF7A7
:1022B000BDFE00283BD04E4B1C684C4B1B5D002BD9
:1022C0001CD1FFF701FDF8BD0A221A70E1E7481E94
:1022D000464C0919001924F0CBFC454D2B68013BF5
:1022E0002B60FEF725FC2000FEF7A2FC200025F065
:1022F00075FC2B68181AFEF7CBFCD7E73B4EA519E7
:102300000134280025F06AFC421CA119280023F0A2
:10231000DBFBFEF70DFC3000FEF78AFC300025F0F9
:102320005DFC334B1B68181AFEF7B2FCC9E750205E
:10233000FEF77CFE002803D02D4B1B68002B44D1F8
:102340004F20FEF773FE002806D0284825F046FCF3
:10235000274B1B68984240D85220FEF767FE0028A2
:10236000AFD15130FEF762FE0028AAD11E4B1A7879
:102370001300203BDBB25E2B01D90A2AA1D11B48F6
:1023800025F02CFC1B4B98429BD8194E35686F1CCE
:10239000164C2D19280025F021FC421C3819290063
:1023A00023F092FB3368104A1278E2540133336011
:1023B000FEF7BEFB2000FEF73BFC200025F00EFCE4
:1023C0003368181AFEF764FC7BE7013B084A136088
:1023D00001204042FEF75CFC73E70133044A1360BE
:1023E0000120FEF755FC6CE7F0B401202896002090
:1023F00028160120FE7F000070B53148FEF78CF8EA
:1024000021F0A5FB0120FEF76DF80B20FEF798F8F0
:102410000120FEF787FB2B48FEF70AFC2A48FEF74F
:1024200007FC2A48FEF704FCFFF760FC00240025A7
:1024300014E0FFF7C7FC17E0FFF722FF14E0244B7E
:10244000244A3F2124481BF0FDF9FA2189001CF0A1
:10245000EBFB001BF423FF33984210D81F4B1B7873
:10246000002BE6D0012BE7D01AF06CFC0029E6DB4C
:10247000EBD0FA22920000231CF014FCE9E71AF0DA
:1024800061FC00290CDB11D0FA22920000231CF021
:1024900009FC0400002D0FD0FEF75CFB0025DDE7F2
:1024A0000B4B0C4A3F210C481BF0CCF9FA21890058
:1024B0001CF0BAFB0400EDE7FEF762FB0125CDE757
:1024C0003C740020102903104C290310142603101B
:1024D00010280310AC2903102C28031071170120B9
:1024E00010B5436900290ADD1B6809015918C36842
:1024F0008B4202D80069383010BD0800FCE7114A51
:1025000091420BDA104A91420CD00F4A521A1B68C2
:102510001C7A662C09D000693830EDE7C3680801E1
:102520001818E9E700692830E6E71B689C799442AF
:1025300005DB0648401A013000011818DCE7006985
:102540003830D9E7D9B9F0FFD8B9F0FFD7B9F0FFE3
:1025500010B5FFF7C5FF006810BD000070B5057A23
:102560003F242C40062C0ED0262C27D10468481E70
:10257000A579A84224D2090161181160002B21D04D
:102580001C6013481BE00468E668481EF568A84212
:102590001AD2CD1CAD002D59AD681560002B03D0AB
:1025A0000430800002591A60F36B0A4A9446614471
:1025B000C9005858002809D0103000E0002070BD34
:1025C0000020FCE70248FAE70020F8E70248F6E7B7
:1025D000A8290310FFFFFF1FF429031070B5140092
:1025E0001D00FFF77DFF0068002D00D02860002C43
:1025F00007DDC368DB68A34205DB0334A4000019D0
:1026000002E0024800E0014870BDC046042A031001
:1026100070B582B004000D00110010F047F80600FC
:102620002B7A452B15D00020E268166033794021C3
:102630000B431372E26813001033E360203B0090F9
:102640002900200015F010FAE368203BE36002B097
:1026500070BD0100286812F0D9FD037A1B07E3D092
:10266000E368103B19685A68016042601B7A037284
:10267000E3681A00103A127A520609D529684A7995
:10268000920605D5103B1B685B7918221A4203D1CC
:10269000E368103BE360DAE7200009F0C3F8F7E7EE
:1026A000F8B5040017001E00FFF752FF0500E368AD
:1026B000103B3A000100200012F0ACFFAB793F2242
:1026C0009343AB71E3681A00103A127A520608D5A8
:1026D0006A79920605D5103B1B685B7918221A426D
:1026E00004D13601E3689E1BE660F8BD2900200096
:1026F00009F098F8F5E710B54A68096807F0E2F9BB
:1027000010BD70B504000D0046698369C2689B1A4C
:102710001B118B4208DD0120E3682D015D197368F0
:10272000AB4200D2756070BD002206F09FFC00280D
:10273000F9D0F1E7F0B5884216D01301C468E31A66
:10274000C360002494420FDACD682301C668B44602
:1027500063441E685F682E606F601B7A2B72CB68C3
:102760001033CB600134EDE7F0BD0269A023D058EF
:10277000D1507047002001497047C04600807F401B
:10278000054BCA189A4205D8C368426912689B1A59
:102790001B11C9180800704727460F00C36842691B
:1027A00010681030181A0011704710B50400436902
:1027B0001A6800290FDB4B1C1B01D318C2689B1A37
:1027C0001B11002B08DDE26811001031E1600021CF
:1027D0001172013BF5E74B1C1901E2689446614414
:1027E000002B01DBE16010BD636A8B42FAD301224A
:1027F00000235242200007F0DBFD0100F2E710B594
:10280000436900290ADD1B680901591801220023C8
:10281000524207F0CDFD0023037210BD0901C368C9
:102820009C466144F2E7F0B585B0C4682300103BD4
:10283000406900291DDD006809014118002A1BDBE1
:1028400012019A1A14000800A0421BD205684668BB
:1028500000950196057A2668676806604760267AC3
:102860000672009E019F2660676025721030103C42
:10287000EAE709016118E1E701321007801A020155
:102880008A18DFE710321800824224D21468556893
:1028900000940195147A0568466815605660057ABB
:1028A0001572009D019E056046600472103210385A
:1028B000EAE70C684D68009401950A7A1C685D6827
:1028C0000C604D60187A0872009C019D1C605D6070
:1028D0001A721031103B9942EBD305B0F0BD0000E5
:1028E00070B504001600FFF7FBFD05003100200065
:1028F000FFF7F6FD2A686B68026043602B7A03726B
:102900000A4A96420CDA5B060AD563691B681968A5
:102910004B799B0604D52A6853791820184200D1B8
:1029200070BD200008F058FFFAE7C046D8B9F0FFA4
:1029300070B50400C568FFF7D3FD026843682A60DC
:102940006B60037A2B72E3681033E36070BD10B5DF
:102950000400FFF7C5FD0200007A0F23184003D1E1
:1029600023693833934200D010BD0138FCE70000E2
:1029700001318900014BC8587047C04614650310E7
:1029800010B5FFF7ADFD037A162B05D0662B01D0ED
:10299000002010BD0120FCE70120FAE710B5FFF789
:1029A0009FFD007A03384342584110BD00B583B003
:1029B000FFF796FD037A132B02D1012003B000BD6F
:1029C000694614F0F0FDF9E710B5FFF789FD027ACA
:1029D0000F231340033B002001229A42404110BDC7
:1029E00070B504001600FFF77BFD050031002000E4
:1029F000FFF776FD2B7A1B0703D123693833AB42EF
:102A00000CD0037A1B0703D123693833834207D0E4
:102A100002002900002015F023FA70BD0020FCE719
:102A20000020FAE770B582B004000B000C3B012BCC
:102A30000CD9E3681A00203A103B009220000CF0F9
:102A400093FBE368103BE36002B070BDC3681A00FB
:102A5000103A156856681D605E60127A1A72C36873
:102A60001033C360E5E7F8B5040017001D00FFF759
:102A700037FD060039002000FFF732FD337A1B07CF
:102A800003D123693833B34220D0037A1B0703D123
:102A90002369383383421BD0012D0BD0022D0FD078
:102AA000002D01D00020F8BD02003100200015F0FB
:102AB000D7F9F8E702003100200015F06BF8F2E7D3
:102AC00002003100200015F019F9ECE70020EAE7D8
:102AD0000020E8E710B504000800E1680CF01AFCDB
:102AE000002802D0E3681033E36010BD10B582B057
:102AF00014000022002300920193FFF7F1FC037AF7
:102B0000132B0BD102684368009201930120002C23
:102B100000D020600098019902B010BD694614F001
:102B200042FDF4E710B582B01400002200230092A9
:102B30000193FFF7D5FC037A033B5A425341DBB2C2
:102B4000002B0AD00168426800910192002C00D04D
:102B500023600098019902B010BD0022694614F06C
:102B6000A0FD0300F2E710B5FFF7BAFC037A012BD2
:102B700003D01B0703D1002000E0002010BD01207E
:102B8000FCE770B505000C001600FFF7A9FC027AFF
:102B90000F231340042B0DD0032B16D10100280066
:102BA0000CF0F9FB2B69DB68002B14DC21002800FA
:102BB000FFF796FC002E05D003681A79042A0ED080
:102BC000DB6833600068103070BD002E01D0002338
:102BD00033600020F8E7280008F098FFE6E7DB798B
:102BE000EFE710B5FFF77CFC027A3F231340052B7B
:102BF00018D007D9072B11D0142B0CD10368D86833
:102C0000002107E0042B03D10368D879002101E0FB
:102C10000020002110BD00200021FBE70368986818
:102C20000021F7E7006812F02DFDF3E710B5FFF77C
:102C300057FC027A0F231340022B0BD0072B0BD12A
:102C40000068C388002B03D01B011833C01804E0B0
:102C50001023FBE7006800E0002010BD10B5FFF76F
:102C60003FFC037A482B01D1006810BD0020FCE72F
:102C700010B5FFF735FC027A3F231340072B09D02C
:102C8000162B05D0022B05D0530617D5006800E09F
:102C9000006810BD0F231A40022A0BD0072A0BD15F
:102CA0000068C388002B03D01B011833C018F0E75D
:102CB0001023FBE70068ECE70020EAE70020E8E7E4
:102CC0000023C2681372C3681033C360704730B505
:102CD00014001D00C3681C605D6013221A72C36873
:102CE0001033C36030BD30B514001D00C3681C60D4
:102CF0005D6003221A72C3681033C36030BD0000E8
:102D000070B50400002A13D10D490FF0CFFC050067
:102D1000E26815602B7940210B431372E36810338E
:102D2000E3602369DB68002B06DC2800103070BDEF
:102D30000FF072FC0500EBE7200008F0E7FEF4E777
:102D4000A829031070B50500002912D00FF0AEFCC1
:102D5000EA681060037940210B43137210300400BD
:102D6000EB681033EB602B69DB68002B06DC20007E
:102D700070BD0023C26813720C00F1E7280008F050
:102D8000C5FEF4E770B504000CF01AFB05002369DA
:102D9000DB68002B01DC280070BD200008F0B6FEC7
:102DA000F9E70EB430B582B0040005AA02CA019258
:102DB0000CF006FB05002369DB68002B05DC28000E
:102DC00002B030BC08BC03B01847200008F09EFEDB
:102DD000F5E7F8B507000E00141E07D1C3681960A7
:102DE00016221A72C3681033C360F8BD110007F0D1
:102DF00039FAC6602301FA68D31AFB60661E002CFC
:102E00000ED03201FB689918731C1B01C3180C68A3
:102E10004D681C605D600B7A821813763400EDE714
:102E2000FB68186066221A72FB681033FB603B690E
:102E3000DB68002BD9DD380008F068FED5E70029F3
:102E400006D01123C2681372C3681033C360704781
:102E50000123C2681372F7E7C368196002221A726D
:102E6000C3681033C3607047C368186048221A7281
:102E7000C3681033C360A4230269D358181A4342AD
:102E80005841704730B583B00400FFF729FB0500B7
:102E9000037A452B0FD00020E268103A009013000F
:102EA0002900200014F07EFDE368103B1B7A0F2000
:102EB000184003B030BDE1681039006812F0BAF96B
:102EC000037A1B07E8D0E368103B01684268196089
:102ED0005A60027A1A72E7E770B582B004001600F1
:102EE000FFF7FEFA0500310020000FF0DFFB0600BF
:102EF0002B7A452B17D00020E268166033794021E9
:102F00000B431372E26813001033E3600090130068
:102F10002900200014F046FDE368103B1B7A0F20C7
:102F2000184002B070BD0100286812F06FF9037AF2
:102F30001B07E1D0E3680168426819605A60027AB1
:102F40001A72E3681033E360E6E70000F0B587B07B
:102F5000060014001D00FFF7C3FA0700037A452B93
:102F600021D12000290001225242D31712184B41CF
:102F700038688168002B11D191420FD9C068144B79
:102F8000E3181B01C018037A1B070DD0F368016812
:102F9000426819605A60027A1A7210E022002B000F
:102FA00012F066F8EFE7002002AA029455600323AE
:102FB00013720090F3683900300014F0F3FCF368EA
:102FC0001A001032F2601B7A0F20184007B0F0BDD3
:102FD000FFFFFF0F10B50400FFF7BAFAE1681039E0
:102FE00012F028F9E368103BE360027A120709D176
:102FF00000221A72E3681A001032E2601B7A0F2076
:10300000184010BD0168426819605A60027A1A724D
:10301000F0E7D0B5040016001F00FFF799FA320060
:103020003B0012F025F8037A1B070AD10023E2685F
:103030001372E3681A001032E2601B7A0F20184006
:10304000D0BDE3680168426819605A60027A1A725A
:10305000EFE770B504000D00160011F0E1FFE36822
:10306000186045221A72E3681033E360002D01DC1A
:10307000002E05DD33002A000100200012F02CF99B
:103080002369DB68002B00DC70BD200008F03EFDEA
:10309000FAE710B50400FFF723FA027A0F23134072
:1030A000052B06D0072B11D044339B0022699B5877
:1030B00001E003689B69002B0BD0E2681360452395
:1030C0001372E3681033E360012010BD0368DB680E
:1030D000F1E70020F9E7F8B505001400FFF700FA62
:1030E000002C17DD0268D388A34213DBE968631E56
:1030F0001B01D3189E69DF690E604F600134240103
:10310000A35C0B72EB681B7A0F201840EB6810333E
:10311000EB60F8BD0023EA68137201204042F5E736
:1031200010B50A0003699B6AD9681031FFF770FA7D
:1031300010BD70B504001500FFF7D2F901002A0098
:103140002000FFF765FA70BDF0B587B006001400E7
:103150001D00FFF7C5F90700037A452B35D1200084
:10316000290001225242D31712184B413868816856
:10317000002B25D1914223D9C0681D4BE3181B01B8
:10318000C018037A1B0721D0F368103B19685A68EE
:10319000016042601B7A0372F3681A00103A127AD7
:1031A00052061FD539684A7992061BD5103B1B6819
:1031B0005B7918221A4215D0300008F033FB11E079
:1031C00022002B0011F054FFDBE7002002AA02943A
:1031D000556003231372F368103B009039003000F0
:1031E00014F042FCF368103BF36007B0F0BDC0463A
:1031F000FFFFFF0F10B5C268203A0223FFF750FA15
:1032000010BDF0B583B0040016001F00FFF7A0F951
:103210000500E368103B009332003B0001002000F2
:1032200012F03AF8E3681A00103A127A520608D5FA
:103230006A79920605D5103B1B685B7918221A4201
:1032400004D1E368103BE36003B0F0BD2900200027
:1032500008F0E8FAF5E770B50400FFF741F905005A
:10326000E3681A00103A127A120702D0103B1E6867
:1032700000E000262A7A0F231340052B0AD0072BE3
:103280001FD044339B0022699E50E368103BE360EB
:10329000012070BD2B689E61002EF6D029684B7905
:1032A0009B0603D5737918221A4205D1296832008A
:1032B000200008F000FBE8E73200200008F08CFA5C
:1032C000F4E72B68DE60002EDFD029684B799B067F
:1032D00003D5737918221A4205D1296832002000DB
:1032E00008F0E9FAD1E73200200008F075FAF4E7B7
:1032F000F8B504001500FFF7F3F8691E0368DA88D3
:10330000914222D20A019A18E16810390E684F687A
:103310009661D7610A7A01352D01EA54E3681A00F3
:10332000103A127A520615D501684A79920613D5D9
:10333000103B1B685B7918221A4201D1012005E07D
:10334000200008F06FFA012000E00020E368103B45
:10335000E360F8BD0120F9E70120F7E770B504004C
:10336000150001310A07521A1101C26894466144DE
:10337000049A002A02D0026E120C06D02A00200005
:1033800006F0A0FB002D0ADB70BD426904981061B5
:10339000626993612A00200006F064FBF2E763692A
:1033A000E26859689142EFD25A60EDE770B584B097
:1033B00004001500002B06D0426920DD12681B01B5
:1033C000D318E2699B1A01310A07521A1101E26807
:1033D000944661440291099A002A02D0226E120C8E
:1033E00012D00395E269891A00930B0002AA1A49C8
:1033F000200006F051FC002D27DB04B070BD1B013E
:10340000C26894466344DCE76669099A3261089AA7
:10341000B261E2698A1AF261E26D7261E3652222A9
:10342000B35E01229343E27913439BB2102213430C
:1034300073842A00200006F015FB738C102293433E
:1034400073847369E3650020D5E76369E2685968AE
:103450009142D2D25A60D0E7F7260010F0B587B07B
:1034600004001D1E2CD013000A0001A9200018F032
:103470006FF90C9B2A0001A9200006F03BFC051EF9
:103480001BD1E368103B1B689A79002A15D022698A
:10349000926AD26819698868166957690660476038
:1034A000117E0172490608D519694B799B0604D52E
:1034B000126953791820184204D1280007B0F0BDD2
:1034C000024DD0E7200008F087F9F6E7002A031044
:1034D00030B583B0C4682500103D2D7A462D02D04A
:1034E000012003B030BD103C2468E4680093130051
:1034F0000A00210006F008FEF3E78079704700001B
:103500000EB4F0B582B0060005695223EB5C9B0750
:1035100000D5D5E008AB0193079B0B2B00D9CAE07F
:103520009B00694AD3589F4652230122EA54079CC4
:10353000200002B0F0BC08BC03B0184700212800EE
:103540000EF006FD52230022EA540024F0E7002189
:1035500008F0F8FA0024EBE7AC68EB68E418A40A7A
:10356000E6E7AC68EB68E418A405A40DE0E7019B6E
:103570001A1D019219685223EF5C0022EA540029B7
:103580000ED128000EF0E4FC300008F0BFFA522300
:10359000EF544D23EB5C082B00D18FE00024C7E7EC
:1035A0008902EB68CC18210028000EF0D1FC3369A9
:1035B000DB68002B05DC5223EF54002CE9DC0024EF
:1035C000B6E7300008F0A2FAF5E7019B1A1D019258
:1035D00019685422AC5CA400C817032303405B188D
:1035E0009B10AB54A4E7019B1A1D01921968552248
:1035F000AC5CA400C817032303405B189B10AB54BA
:1036000096E75223EC5C63425C41E4B290E7019A96
:10361000131D019311680433019352684E23EB5C30
:10362000012B04D06B69002B01D10B3307930029C8
:1036300001D05023E954002A06D0D11703230B40B0
:103640009B189B105122AB540121300008F0A2F9C5
:10365000079C6DE701990A1D01920F68131D0193E4
:1036600049680433019350684E23EB5C012B04D06E
:103670006B69002B1DD00A2400E00A24002F06D01D
:10368000FB1703221A40D21992105423EA5400293E
:1036900006D0CA17032313405B189B105522AB5466
:1036A000002801D05623E8540021300008F072F9B8
:1036B0003EE7079CE2E70124644239E7012437E74B
:1036C0000124644234E7C046C429031010B5C3681E
:1036D0001A00103A127A442A06D1103B1A68A8231D
:1036E0000169CB589A4201D005F08EF9042105F00A
:1036F000B1FB10B50400FEF72BFF0100E268103AA1
:10370000200011F045FC002803D0E3681033E3608B
:1037100010BDE368103BE360FAE770B5040043694D
:10372000002910DD09011A689446614420255D5F77
:10373000200006F0EBFD6B1C04DB626903235B4297
:103740005D1B158470BD0901C26894466144EDE7B4
:1037500070B50400002906DD14F058FC2369DB680D
:10376000002B0EDC70BDC568002208490EF054FF26
:1037700028600379402213432B72E3681033E3601F
:10378000ECE7200008F0C2F9ECE7C046A8290310D6
:1037900010B50400FEF7A4FE0200E168200014F05A
:1037A000FBFCE3681033E36010BD002902D003691D
:1037B0005B680B6003691868704710B5B8239B00FD
:1037C0000469E2500269043BD15010BD10B50EF0FF
:1037D0009AFD10BD70B504000EF0A6FF0500E36869
:1037E000186047221A72E3681033E3602369DB68CC
:1037F000002B05DCE888002806D00001183004E022
:10380000200008F083F9F5E71020281870BD70B586
:1038100082B00400150000230193FEF761FE00232F
:1038200001AA2900FEF79AFE00280AD0E368019A4F
:10383000156856681D605E60127A1A72E36810336C
:10384000E36002B070BD30B583B004001500002302
:1038500001930093FEF744FE6B4601AA2900FEF790
:103860007DFE051E16D0E368103BE360019A1868E0
:103870005968106051601B7A1372019B1A7A5206C4
:1038800008D500994A79920604D51A685379182008
:10389000184202D1280003B030BD200007F09CFF81
:1038A000F8E770B505000E001400FEF719FE027A65
:1038B0003F231340062B03D0262B09D0002070BDD8
:1038C0000023220031002800FEF788FE0068F6E79A
:1038D0000068002C05DD8379A34204DB2401001974
:1038E000EDE70020EBE70020E9E770B582B00400C7
:1038F0001E0001ABFEF772FE05000023069A3100A0
:103900002000FEF76BFE02682A6001994B799B0646
:1039100003D553791820184201D102B070BD2000A0
:1039200007F05AFFF9E74B68002B04D0136000231F
:103930004B60086870470020FCE7F0B59DB00600BA
:103940000124012701AA2100300004F04DFF0028C6
:1039500003D027006400F5E72C00A7420CDA3B19DE
:10396000DD0FED186D1001AA2900300004F03CFFB6
:103970000028F1D06F1CF0E7601E1DB0F0BD000004
:1039800070B504000D00161E01D1002070BD01218C
:103990004942FEF7DCFF0528F7D12000FFF790F938
:1039A0000BE0022149422000FEF7FFFE0120EDE777
:1039B000022149422000FEF7F8FE02214942200080
:1039C000FFF797FE0028E1D0022149422000FEF7D0
:1039D000BEFF0428ECD10122524229002000FEF74C
:1039E000FFFF0028DDD1721E29002000FFF7C8FF6D
:1039F0000028DDD00A492000FFF7A4F903220121A5
:103A0000524249422000FEF76BFF0221494220004A
:103A1000FEF7CBFE03212000FFF79AFE0120B5E759
:103A2000382A0310F8B504000D00FEF7B7FE0700B2
:103A30002A002049200004F087FF1F4A1F49200068
:103A4000FFF74AFA7E1C022231002000FFF798FFA0
:103A5000051E2AD00121002249422000FFF791F8DB
:103A600005000322164924F0EDF800280CD00121AE
:103A7000320049422000FEF733FF31002000FEF7FC
:103A800094FE01252800F8BDE91C2000FFF75AF933
:103A9000012202256D42524229002000FEF7C3FE9A
:103AA00029002000FEF781FEE1E739002000FEF743
:103AB0007CFEE7E7A02B03105C2D0310D8B9F0FFC4
:103AC000642D031070B504000D00FFF7ABFF002854
:103AD00011D1AA681378002B25D1EB681B786D2BC8
:103AE00027D0432B2AD02A002C32EB69164920001C
:103AF000FFF757F916E00126764200223100200038
:103B0000FFF73FF8020011492000FFF74AF90225AC
:103B10006D42320029002000FEF785FE29002000BA
:103B2000FEF743FE70BD6B6809492000FFF739F9C5
:103B3000F8E708492000FFF705F9F3E706492000F8
:103B4000FFF700F9EEE7C046482D0310242D0310BF
:103B5000342D03103C2D0310002A0310F0B583B060
:103B600004000E00150020F061F8006823F0E4F96D
:103B70000700002229002000FFF703F8431C0097EC
:103B8000320009492000FFF70CF9012252422900B6
:103B90002000FEF748FE022149422000FEF705FE04
:103BA000062003B0F0BDC046242A0310F0B583B050
:103BB00007000C00160001A9FFF7F7FD0500210022
:103BC0003800FFF733F804003300426801680198B9
:103BD000A847051E07D00023002B0AD12560666088
:103BE000280003B0F0BD002E01D10023F4E701232B
:103BF000F2E704493800FFF7A5F83800FFF766FD43
:103C0000ECE7C046682D031010B500220121FFF734
:103C1000CDFF002010BD70B50C0015000B68002B07
:103C200005DD136000230B602000083070BD4B6879
:103C30009A89920608D4080008308022D200012117
:103C400020F0C6FB2860EFE70020EFE770B5050025
:103C500021F076F80400EF2801D0200070BD280084
:103C600021F06EF8BB28F8D1280021F069F8BF28B0
:103C7000F3D1280021F064F80400EEE770B50400E9
:103C80000D00FFF7E3FF2860232801D0002070BD5E
:103C9000200021F055F8431C01D00A28F8D120005B
:103CA00021F04EF828600120F1E7000070B5040013
:103CB000002A1FD14D1C0B78402B01D0100070BD85
:103CC0000D49280022F08CFF002807D00B4928005E
:103CD00022F086FF002807D00120F0E722000849E3
:103CE0002000FFF76AFDF7E7220006492000FFF7F2
:103CF00064FDF1E70020E2E7202A0310244D0310C1
:103D0000093D00104D3D001010B5FFF7CFFF10BD6D
:103D100070B5040015000A48FCF78AFF002D05D095
:103D2000220008492000FFF748FD70BD0448FCF759
:103D30007FFF220004492000FFF73FFDF5E7C04662
:103D4000B02B0310113D00104D3D001070B5040064
:103D50000D001600FFF7AAFF002800D070BD044830
:103D6000FCF766FF320029002000FFF7D1FFF5E7DE
:103D7000B02B031010B5012100224942FEF701FFCC
:103D80000248FCF755FF002010BDC046642A03100E
:103D900010B50800002B03D019001BF0CBFA10BDA2
:103DA0001BF0E8FA0020FAE710B59CB0040001AA65
:103DB00004F01AFD002807D001AA0949200004F0E8
:103DC000C3FD079B002B05DC06492000FEF7E9FF39
:103DD0001CB010BD0CAA04492000FEF7E2FFF7E773
:103DE000FC2C0310A8290310002D03100EB430B5CD
:103DF00082B0040005AB20CB01930121FFF7D4FF73
:103E0000019A29002000FEF7BDFF02212000FFF7E4
:103E10009FFC2000FFF75AFC02B030BC08BC03B086
:103E20001847000070B59EB004000D00160003AAEC
:103E3000002104F0D9FC002819D003AA1B49200056
:103E400004F082FD05981A4922F0CAFE002802D12A
:103E5000013D002D12D0049B002B16D00096049B30
:103E60002A0014492000FFF7C1FF1EB070BD3300C7
:103E70002A0011492000FFF7B9FFF6E73300049A42
:103E80000E492000FFF7B2FFEFE703A92000FFF77C
:103E9000C9FD002802D10A480490DFE70121002271
:103EA00049422000FEF76DFEF6E7C046AC920310D3
:103EB000583B0310D02A0310982A0310B02A03108D
:103EC000002A031010B543685B085A00D218CC438F
:103ED00083689C4204D35818904200D8100010BD4B
:103EE000C0680249FFF782FFF9E7C046102D0310B2
:103EF000F8B504000E0017001FF098FE0568002EAC
:103F000005D001212000FEF79AFF0120F8BD200016
:103F1000FEF7D6FE002F0FD0280023F00DF8030087
:103F20003A0009492000FEF73CFFEB172A00200069
:103F3000FEF7D9FE0320E9E7280022F0FDFF01008B
:103F40002000FEF7FFFEF0E7AC2B031070B5050074
:103F50000C1E04D01FF06AFE0368002B10D1002C49
:103F600014D101212800FEF76AFF0A492800FEF754
:103F7000E9FEE31722002800FEF7B5FE032070BD1E
:103F8000002200212800FFF7B3FFF8E72800FEF722
:103F900097FEEAE7A42B031070B504000D000A0099
:103FA0001349FEF799FF002801D0002070BD0226BA
:103FB000764231002000FEF7F8FB022200212000AB
:103FC000FFF747F829002000FEF7BCFE094A310040
:103FD0002000FFF7AEF8012149422000FEF7A8FCBF
:103FE0002A0003492000FFF7A4F80120DEE7C046BD
:103FF000D8B9F0FFFC2B031010B504000A000449E7
:10400000FEF76AFF022149422000FFF724F910BDA4
:10401000D8B9F0FFF8B505000E001700FEF706FE50
:10402000041E06D031002800FFF733F8002802D123
:1040300000242000F8BD3A0009492800FEF74CFF93
:1040400002220121524249422800FEF7C9FC002801
:1040500000D10024032149422800FEF7A6FBE8E72F
:10406000D8B9F0FF70B504001500FEF74AFB002830
:1040700000D070BD002D05D02A0005492000FFF7B3
:10408000B5FEF6E703492000FFF7B0FEF1E7C046B2
:10409000142B0310282B031070B504000D00FEF73D
:1040A00056FC431C00D070BD024A29002000FFF7D7
:1040B000B9FEF8E7F02A031070B50400C5688268FD
:1040C00001682800FEF71CFE23681034A34204D0C8
:1040D000022149422800FEF792FB01220224644299
:1040E000524221002800FEF79EFB21002800FEF727
:1040F0005CFB70BD10B583689C4661448160FFF72E
:10410000DBFF10BD10B5C8600B0010330B6000233F
:104110008B6080239B004B60FEF79EFE10BD00006D
:10412000F0B5474CA54404000D001700FEF736FB20
:10413000461C002D4FD02A0042492000FEF731FED8
:104140004149280020F05CF8079000284CD000235B
:10415000069305A90798FFF791FD002807D0069B55
:104160005A1C069206AA944663440A221A72059BB8
:104170001B2B40D0059B5A1C06D0069A511C069159
:1041800006A98C4662441372012100224942200094
:10419000FEF7F7FC0300009706AA2C492000FFF762
:1041A0005DF903900798878940231F40002D01D0B7
:1041B0001FF08EFD002F37D1012252423100200026
:1041C000FEF731FB022149422000FEF7EEFA039888
:1041D0001F4B9D44F0BD1F492000FEF7B3FD1E4B51
:1041E0001B685B680793B2E732001C492000FFF7A9
:1041F000B5FC0390EBE700230693002DBAD0079B94
:1042000003931A001649280020F0F2FA07900028BC
:1042100003D005A9FFF732FDACE7320011492000B9
:10422000FFF79CFC0390D2E731002000FEF7BDFAB7
:1042300032000D492000FFF791FC0390C7E7C0460C
:10424000DCFBFFFFDC2B031080910310173C0010F8
:1042500024040000D42B031048770020E02B031027
:10426000E82B0310EC2B0310F42B031000B585B0E2
:1042700002910392069A009202AA0249FFF7EEF811
:1042800005B000BD2739001070B505001600FEF717
:1042900000FF041E01D1200070BD31002800FEF790
:1042A00051FD022149422800FEF794FE041E05D16B
:1042B000032149422800FEF778FAECE701220226A2
:1042C0007642524231002800FEF7ADFA3100280054
:1042D000FEF76BFADFE7000070B504000D00160072
:1042E000144AFFF7D1FF042807D029002000FEF769
:1042F0002EFB022813D1104B06E001210022494277
:104300002000FEF73EFC030032000C492000FEF7BF
:1043100048FD020029002000FFF784FD70BD290040
:104320002000FEF714FB01002000FEF721FB030034
:10433000EAE7C046FC2B0310D82C0310E82C03102E
:10434000F8B505000E001700FFF764FE041E01D04B
:104350002000F8BD3A0031002800FFF7BDFFF7E765
:1043600070B504000D001100FEF702FB02002900E9
:104370002000FFF7B1FF70BD70B504000D001600FE
:10438000FEF7E5FAB04200D170BD320029002000EE
:10439000FFF7E6FFF8E770B505000E00FEF7F1FB4A
:1043A000041E01D0200070BD042231002800FFF758
:1043B000D7FFF7E7F8B505000E0014001F00FEF761
:1043C000C6FA00280BDC002F05D0002C05D02000F9
:1043D00023F004FC38602000F8BD0020FAE73A0022
:1043E00031002800FFF7D7FFF6E70000F0B583B0F3
:1043F000060001911F00002A0FD00023FFF7DAFF0B
:1044000005000024A300D85900280CD0290022F070
:10441000E7FB002812D00134F4E700220199FFF7EE
:10442000BAFF0500EDE72A0006493000FEF7B9FCA7
:10443000020001993000FFF7F5FC0400200003B0F2
:10444000F0BDC046002B0310F0B583B004000D0092
:1044500001AAFEF74BFB06000F00019B002B03D0C7
:104460003000390003B0F0BD032229002000FFF71F
:1044700077FFF5E7F8B506000F0014001D00FEF702
:1044800066FA002802DC20002900F8BD390030005F
:10449000FFF7DAFF04000D00F5E7000070B5040037
:1044A0000D00FEF783FA002805D0064A29002000F7
:1044B000FFF7B8FC70BD032229002000FFF750FF72
:1044C000F8E7C0463C2A0310F0B583B004000D00A5
:1044D00001AAFEF727FB06000F00019B002B03D06B
:1044E0003000390003B0F0BD29002000FFF7D6FFEF
:1044F000F6E7F8B506000F0014001D00FEF727FAD6
:10450000002802DC20002900F8BD39003000FFF748
:10451000DBFF04000D00F5E770B582B00400160063
:10452000FEF72EF90500320001002000FFF7ACFE77
:10453000002801D102B070BD29002000FEF7F8F973
:1045400000230093012201212000FEF707FF012034
:10455000F0E70000D0B582B00400FFF719F901219F
:1045600001AA49422000FEF7DDFA06000F00019B78
:10457000002B08D0022149422000FEF716F9300036
:10458000390002B0D0BD02492000FFF72FFCF1E74F
:10459000B42B0310F0B583B004001600FEF7F0F85A
:1045A0000500484A01002000FFF7B6FF002813D09D
:1045B000012149422000FEF707FA002807D0012117
:1045C000320049422000FEF7DCFA03B0F0BD3E495C
:1045D0002000FFF70BFCF2E729002000FEF7B7F9F7
:1045E00001282ED008DD03280DD0042836D129005B
:1045F0002000FEF79DF9E2E700282FD13349200083
:10460000FEF7A0FBDBE729002000FEF7C7F9002832
:104610000BD0002229002000FEF784FA02000B00D4
:104620002B492000FEF7BDFBC9E70022290020002E
:10463000FEF75CFA02000B0026492000FEF7B1FBF2
:10464000BDE729002000FEF78EFA002804D0224999
:104650002000FEF777FBB2E72049F9E7204A29005E
:104660002000FFF711FE0700042822D029002000B7
:10467000FEF76DF901002000FEF77AF9019029009C
:104680002000FEF7F5FA0300019A16492000FEF714
:1046900088FB002F00D192E7012202256D42524291
:1046A00029002000FEF7BFF829002000FEF77DF862
:1046B00085E70121002249422000FEF762FA0190BD
:1046C000DDE7C046282C0310342C0310602C0310A7
:1046D000582C03105C2C0310202C0310182C0310F2
:1046E000FC2B0310642C0310F8B506000F00150016
:1046F000154A2900FFF7B6FC11E000213000FEF753
:104700009EFB04E02A0079683000FEF762FB02217C
:104710004942491B3A683000FEF70BFD08373B68F9
:10472000002B0BD07B68002BE7D00024AC42E9DAE9
:1047300069423000FEF7FCF80134F7E7E943300046
:10474000FEF733F8F8BDC046042C031010B5040082
:1047500000220821FFF73EF8002303604360094967
:104760002000FFF719FC002805D102214942200052
:10477000FEF771FD10BD002203492000FFF7B4FFD2
:10478000F3E7C046082D0310082A0310F8B504000B
:104790001500826843689B1A8B4202D30068801818
:1047A000F8BDC768FFF78EFB0600230010332268B0
:1047B0009A420AD0020029003800FFF7F7F90500F5
:1047C00025606660A0682818EAE7012252422900A5
:1047D0003800FEF728F8022149423800FDF7E5FFCE
:1047E0003800FFF7B3FF012229003800FEF71BF85D
:1047F00029003800FEF791FF320029003800FFF74A
:10480000D5F90500A26821681AF0D2FDD8E710B5E5
:1048100001225242FFF7BAFF10BD70B505000E002D
:10482000141E00D170BD012252422100FFF7AEFFDD
:10483000220031001AF0BCFDAB689C466444AC60B9
:10484000F0E770B505000C00080023F0C7F902007E
:1048500021002800FFF7E1FF70BDF0B583B0040030
:10486000C568012101AA49422800FEF78AF907001C
:1048700002267642320001992000FFF787FF019A55
:1048800039001AF095FDA368019A94466344A36029
:1048900031002800FDF789FF03B0F0BDF0B5C64632
:1048A00000B53D4CA5440190009117001C00080084
:1048B000FFF743F88046031B152B19DD0A261EA9B6
:1048C0000198FFF71FFC002F0DD039001EA8FFF73D
:1048D000B8FF209A1F9B9A420DD2209B5A1C20920F
:1048E0000A221E99CA542D491EA8FFF7AAFF25E0E7
:1048F00001267642E3E701211EA8FFF788FFECE7D7
:1049000003AA2749009804F01FF8099B002B2DDD0E
:104910000EAA24490198FEF744FA1EA8FFF79DFF4E
:1049200003A90198FFF7CEF81EA8FFF796FF03AA88
:104930002723D35C002B1FD13C002E00671C03AA49
:104940002100009803F050FF00281BD0751E002E98
:10495000D6D14346DC1B0A3C220013490198FEF7DE
:1049600020FA1EA8FFF779FF3C19E6E70EAA0F49C7
:104970000198FEF716FAD0E70D491EA8FFF761FF70
:104980003C00DAE71EA8FFF797FBA2239B009D449B
:1049900004BC9046F0BDC04678FDFFFF6C2C0310B0
:1049A0009C2C0310B02C0310802C0310A42C03109B
:1049B000C02C031070B50C001500FFF7A3FB0122FB
:1049C000524229002000FFF7E1FE70BD70B50400DF
:1049D0000E001500FEF780FA052801D1012070BDF8
:1049E000022149422000FDF7E0FE31002000FDF7E2
:1049F000C7FE0600002200212000FEF72AFB01214D
:104A000049422000FDF794FF2A0031002000FEF704
:104A100090FB0020E3E70000F0B585B004000E0035
:104A200003921F00254A2649FFF7D0FF01256D425A
:104A3000320029002000FEF74FFA29002000FEF77F
:104A400092F800280FD0012202256D42524229001F
:104A50002000FDF7E8FE29002000FDF7A6FE002F4C
:104A600022D105B0F0BD022149422000FDF79DFE94
:104A7000002203992000FEF7ACF931002000FEF778
:104A800061F900230093012201212000FEF766FC5A
:104A9000012149422000FDF74BFF0321320049422A
:104AA0002000FEF746FBCEE7012149422000FDF73A
:104AB0003FFF31002000FEF733FBD2E75C2D0310EF
:104AC000D8B9F0FFF0B583B005000C000092019357
:104AD000100023F083F807000099200023F08EFADD
:104AE000061E0AD0321B21002800FFF796FE01990E
:104AF0002800FFF7A6FEF419EEE721002800FFF7D3
:104B0000A0FE03B0F0BD0000F0B50E4CA5440400BB
:104B10000D0016001F006946FFF7F4FA3B00320053
:104B200029006846FFF7CEFF6846FFF7C5FA012166
:104B3000002249422000FEF724F885239B009D4473
:104B4000F0BDC046ECFDFFFF10B5002107480DF099
:104B500071FA041E07D00649FDF707FE2200054939
:104B60002000FEF72AFE200010BDC046913D001037
:104B7000753D0010093D0010D0B584B004000292CC
:104B80000393FDF7F7FD06000F00089B882B0ED15D
:104B9000029A039B2DF0D4FC00280CD100960197BB
:104BA000029A039B05492000FFF720F903E004491E
:104BB0002000FFF71BF904B0D0BDC0466C2B0310DA
:104BC000382B03100320704710B5FDF7E7FD0138BF
:104BD00010BD70B504001500012903D8FDF7DEFDF6
:104BE000401B70BD0021FEF72AF902214942200036
:104BF000FDF79EFE0220F4E730B583B00400FDF718
:104C0000CDFD0500062202212000FFF7B5FB0121A2
:104C10002000FEF714F901212000FDF789FE022291
:104C200003212000FDF7FFFD0122A91E074B019380
:104C30000223009352422000FEF7B8FB010002223B
:104C40002000FFF7C6FF03B030BDC046D34B0010B5
:104C500070B504000121FDF77AFE0500431C09D060
:104C600029002000FDF784FE01002000FEF76AF80D
:104C7000012070BD024A01212000FFF7D3F8EFE7C1
:104C8000F02A031010B582B004000121FFF704FAE6
:104C900001212000FEF7D3F8012201212000FDF7B9
:104CA000C2FD2000FDF77AFD0122811E074B019312
:104CB0000023009352422000FEF778FB01000022FF
:104CC0002000FFF786FF02B010BDC046D34B001096
:104CD00010B504000121FFF7DFF9002201212000B7
:104CE000FFF758FC012010BDF8B50600FDF756FD92
:104CF000070001213000FDF72AFE042807D1002219
:104D000001213000FDF73DFF0378232B0FD0012157
:104D10003000FFF7D9FB002910DB3C00FD17A9424A
:104D200010DC01D1B8420DD804000D000AE07A1E53
:104D3000D3173000FDF7D7FF01200AE03C00FD1734
:104D400024184D41EA171300121BAB41002B01DA66
:104D5000381BF8BD024A01213000FFF763F8F7E77E
:104D6000102F031010B54B1C06D00B2907D0054996
:104D7000FDF7E8FF012010BDFDF7A2FFFAE70249A9
:104D8000F6E7C046E42F0310F42F0310F0B5DE461B
:104D900057464E464546E0B583B006008A46019226
:104DA000344922F0BDFFB14681444B461B782D2B80
:104DB0000CD02B2B0FD000239B464B461B782E4A42
:104DC000D35C5B074BD0002600272AE02C3B9C4697
:104DD000E1449B46F1E72A3B9C46E14400239B4685
:104DE000EBE703210A40022A26D03722524290469E
:104DF0009844D04535DA5346D91732003B00504627
:104E00001AF04AF94446E5170019694106000F00F7
:104E100001239C46E1444B461B78174AD35C5B0751
:104E20000CD04B461B78144AD25C5107D9D530229E
:104E3000524290469844DCE7203BD6E70D4948466D
:104E400022F06EFF48445B46002B04D033003C0048
:104E500000275E42A741019B1E605F6002E00020C8
:104E600000E0002003B03CBC90469946A246AB4609
:104E7000F0BDC046B02D03100D820310F0B585B013
:104E800004000221FDF763FD002833DD002200232A
:104E90000292039302212000FFF716FB06000F0089
:104EA000042201212000FFF767FA01AA0121200056
:104EB000FDF767FE050002225242D31792197B418B
:104EC0000121002B02D102D1222A00D90021C9B22E
:104ED00000292ED002AA31002800FFF757FF019BBE
:104EE0009C466544A8422AD02000FDF7E9FE012037
:104EF00005B0F0BD01212000FDF729FD032813D0E6
:104F000002AA01212000FDF73CFE002807D0010085
:104F10002000FDF7DFFD029B01339842E7D001211D
:104F20002000FFF7B9F8DFE701212000FDF73DFC85
:104F3000DDE7064A02312000FEF774FFCAE7029A55
:104F4000039B2000FDF7CFFED1E7C046642F03107E
:104F500070B504000221FDF7FAFC050005220121CD
:104F60002000FFF709FA002D05D0052D01D0002300
:104F700002E0012300E00123002B10D00D4A0121A3
:104F80002000FFF781F900280FD102212000FDF752
:104F90000CFC01212000FEF75EF9012070BD064ADD
:104FA00002212000FFF798F9E8E704492000FEF706
:104FB0001DFFF3E7342F0310242F0310402F03109D
:104FC00010B5040005220121FFF7D6F902212000C7
:104FD000FFF762F803212000FFF75EF803212000AD
:104FE000FDF7E3FB01212000FEF704F9012010BDCD
:104FF00010B5040005220121FFF7BEF902212000AF
:10500000FFF74AF802212000FDF7CFFB0121200025
:10501000FDF7E0FF012010BD10B504000121FDF7F0
:1050200096FC043801280AD801212000FDF7D9FD9B
:1050300002000B002000FDF756FE012010BD034AC0
:1050400001212000FFF748F9EEE7C046002F0310CA
:1050500010B504000121FFF71FF802212000FFF71F
:105060001BF8022201212000FDF7BAFC01002000FC
:10507000FDF7E5FE012010BD70B50500FDF78EFBC4
:105080000600002201212800FFF785F90224B4421E
:1050900006DC002221002800FFF77DF90134F6E745
:1050A00001240AE0002221002800FDF76AFD01002A
:1050B00001222800FEF78AFB0134B442F2DB002211
:1050C00031002800FDF75DFD010000222800FEF7F9
:1050D0007DFB002070BD0000F0B583B00500FDF73A
:1050E0005DFB070001240BE00E48FBF7A1FD30003B
:1050F000FBF79EFD022149422800FDF756FB0134D3
:10510000BC4208DC01AA21002800FFF743FA060090
:10511000012CE9DCEBE70A20FBF748FD002003B097
:10512000F0BDC046FC2E031010B504000121FEF7AF
:10513000B3FF002207492000FDF74BFE01212000AC
:10514000FDF7F6FB002200232000FDF7CCFD032035
:1051500010BDC046A353001010B582B00400012159
:10516000FEF79AFF114A01212000FFF78DF8002871
:105170000ED100220E492000FDF72BFE0121200058
:10518000FDF7D6FB2000FDF79BFD032002B010BD0C
:1051900001212000FDF7CCFB064B009300230322E6
:1051A00001212000FEF7DAF8EFE7C046F42E0310E5
:1051B000B9510010C54B001010B5040005220121A3
:1051C000FFF7DAF802212000FDF7EFFA01212000B5
:1051D000FEF78FFA002801D0022010BD2000FDF755
:1051E0006FFD0120F9E7000030B583B00400150021
:1051F0001E4A0221FEF736FF01212000FDF798FB31
:1052000000230093012200212000FEF7A7F80121CE
:1052100049422000FDF79BFB002818D0012149429C
:105220002000FDF7D1FB00281AD0012105224942B8
:105230002000FDF755FB022149422000FDF7B5FA99
:105240002A0005212000FDF79CFC03B030BD02219F
:1052500049422000FDF7A9FA00232B600020F4E763
:1052600003492000FEF7C2FDDFE7C046882E031089
:10527000A42E031070B505004C424C41E4B2002C42
:1052800014D0002A01D1200070BD1100FDF750FBA1
:105290000221012249422800FEF7D5FA0028F2D166
:1052A000022149422800FDF780FAECE7FDF708FDEE
:1052B0000221012249422800FDF7B5FA0224E2E763
:1052C000F0B585B0040003AA0121FDF75AFC0500E2
:1052D00000231F4A03212000FFF76CF80700042178
:1052E0002000FDF734FB431C16D00426002D15D0FA
:1052F00000232A0002212000FFF75CF8030000973A
:10530000039A29002000FEF7B1FF010032002000BF
:10531000FFF7B0FF05B0F0BD0026E7E700230D4A18
:1053200002212000FFF746F8050006220121200097
:10533000FFF722F805212000FDF737FA00972B0030
:10534000002205492000FEF789F80100DEE7C0468B
:10535000E82E0310EC2E0310E9510010F8B50400FC
:10536000002300220121FFF725F806000023002278
:1053700002212000FFF71EF8070003212000FDF79F
:10538000E6FA431C0BD003253A0031002000FEF75B
:10539000C7FE01002A002000FFF76CFFF8BD0025C2
:1053A000F2E770B506000221FFF78EF80124002510
:1053B00024184D4122002B003000FDF794FC220000
:1053C0002B0001213000FDF7C1FD002801D1013083
:1053D00070BD0220FCE7000010B504000121FEF7BB
:1053E0005BFE01212000FDF754FE002806D0054A8F
:1053F00001212000FEF748FF012010BD2000FDF72D
:105400005FFCF9E7342F031070B50400012200237C
:105410000221FFF76EF8050001212000FDF7C5F914
:1054200001212000FDF793FA042803D02000FEF7A5
:105430004DF970BD002DF9DD29002000FEF7B4FC08
:1054400001212000FDF774FA02212000FEF780F907
:10545000ECE7000030B583B00400002300220121F6
:10546000FEF7A8FF050001212000FDF79EF90022AC
:1054700029002000FEF754FE00280FD10122094B1D
:1054800000930023524200212000FDF767FF002215
:1054900000212000FFF798FB03B030BD2000FEF78D
:1054A00015F9F9E7C94B0010F0B583B004005A4B69
:1054B0005A4A0121FEF79AFF8000594BC558EB1E4E
:1054C000082B00D999E09B00564AD3589F462900E3
:1054D0002000FEF715F8060004212000FEF710F862
:1054E0000500731C05D12000FDF7EAFB012003B085
:1054F000F0BD30002CF0ACFF06000F0028002CF0AF
:10550000A7FF0022484B2CF0DBFF02000B0030000D
:1055100039002CF0CDFF02000B002000FDF7D7FB77
:105520000120E4E70022002302212000FEF7E1FF32
:10553000020029002000FDF7E3FF431CD3D0010047
:105540002000FDF77CFC0120D1E70022002302218E
:105550002000FEF7CEFF020029002000FDF7D0FF5B
:10556000431CC0D0C31702002000FDF7BCFB012084
:10557000BDE729002000FDF7C3FF431CB3D00100A5
:105580002000FDF75CFC0120B1E70022002302218E
:105590002000FEF7AEFF06000022002303212000BA
:1055A000FEF7A7FF0300320029002000FDF7A8FF47
:1055B00001002000FFF7D6FB99E70022002302211B
:1055C0002000FEF796FF06000022002303212000A2
:1055D000FEF78FFF07000022002304212000FEF7C2
:1055E00088FF00903B00320029002000FDF788FF73
:1055F00001002000FFF7B6FB79E729002000FDF746
:105600007FFF431C00D16EE7C31702002000FDF7A7
:105610006AFB01206BE7C046902F0310E02E0310B9
:10562000BC2F03108C2D03100000503F10B5040058
:105630000121FDF798FA002803D02000FDF7AEF80D
:1056400010BD01212000FEF727FD01225242012159
:105650002000FDF7E8F8022149422000FDF7A5F8F7
:1056600005492000FDF76EFB01212000FDF79DF8A4
:105670002000FFF7C9FEE3E7CC2E031070B504004D
:10568000022200230F49FDF7C4FC00220E4920002E
:10569000FFF72AF8012149422000FDF749F90225C8
:1056A0006D420A4A29002000FDF743FD0849200009
:1056B000FDF748FB074A29002000FDF73AFD0120CD
:1056C00070BDC046D8B9F0FFB82D0310782F031075
:1056D0007C2F0310842F031003694269934218D171
:1056E0000378052B0BD0062B15D1002915D0826825
:1056F000C3680A604B6003230B7201200AE0002993
:105700000DD08268C3680A604B6013230B720120BE
:1057100000E0002070470020FCE70120FAE70120AC
:10572000F8E783685B6C18688A6853009B18DA0096
:105730008018704703694269934207DD0268506B25
:10574000034A944663449B00C01800E00148704738
:10575000FFFFFF3FF433031003685B6B8A00D058F0
:10576000C009044B9C466044431C01D001314018E1
:105770007047C046010000FF0368586B8B00C018DB
:10578000002908DD031F1B687F221340024AD35CF7
:10579000DB0600D5043870478452031010B514009E
:1057A000FFF7EAFF02687F231340432B1DD1FF2C34
:1057B0000ED0110CBC330B40A34209D00C4B1A4045
:1057C000E401FF23DB011C401443046001200DE0D1
:1057D000130CDB01FF21C9010B4080310A401A4341
:1057E00042231A430260012000E0002010BDC046A1
:1057F0007F80FFFF70B505000C00631C0AD0FF22FC
:1058000021002800FFF7CAFF21002800FFF7A4FFAE
:105810000400F2E770BD02680369013B126CD356C5
:105820001A00803207D08269D31A83613522835CE3
:10583000013B83547047436A013B43623523812215
:10584000C254F7E710B50400FFF7E5FF2369013BF9
:10585000236110BD7F22002312184B410120002B31
:1058600002D102D1FF2A00D900207047064A002346
:1058700012184B4111000120002B03D103D1034B1F
:10588000994200D900207047FFFF0000FFFF010090
:10589000027A3F231340DAB2142A09D89B000F4A38
:1058A000D3589F4606230B70026843688A60CB601A
:1058B000704705230B70026843688A60CB60F7E786
:1058C00003230B70F4E702230B70F1E701230B7045
:1058D000EEE707230B7003688B60E9E71C310310C8
:1058E00070B505000C00631C0ED021002800FFF7E6
:1058F00043FF03687F221340432B07D12100280078
:10590000FFF72AFF0400EEE7002070BD0120FCE74E
:1059100010B58968FFF730FF0268054B1340120489
:1059200004D4802212021343036010BD0022FAE760
:10593000FF7FFFFF0B78042B01D0002070470B691D
:105940004A69934201D00020F8E78B68FF2B08DCFE
:105950000268126B1B01D3181B7A442B03D0002062
:10596000ECE70020EAE70120E8E730B587B0050062
:105970000C0018220100684619F01AFD18222100B7
:10598000280019F015FD18226946200019F010FDB5
:1059900007B030BD10B50024632C0CDC8B00C3585D
:1059A0007F221A40382A06D1DB09044A9446634410
:1059B000C9180134F0E7080010BDC046020000FF1E
:1059C00010B503685B6B8C001B190131521A084932
:1059D0008C46624407498A4206D87F2118680140F4
:1059E000D2010A431A6010BD8068034907F074FAB7
:1059F000FFFFFF00FFFFFF01D8330310F0B583B0B6
:105A000005000C0001921F0005E0089A2100280003
:105A1000FFF7D6FF3400631C11D021002800FFF7E8
:105A20009BFE06003A0021002800FFF7B7FE002881
:105A3000EBD0019A21002800FFF7C2FFEAE703B08C
:105A4000F0BD0000F0B5C64600B584B004000D00FE
:105A50009046130082699F1A03695E1EFA17BB18ED
:105A600053407F2B06DC3522835C591C81545BB28A
:105A7000002B1EDAA368586B2B002433184A0292BD
:105A8000184A019208220092626A696C08F03EFB93
:105A90006864636ADB00C6506A6C636A591C6162A1
:105AA000DB00D31842465A6035230122E254802796
:105AB0007F42A368586B2B0018330B4A02920B4AA3
:105AC0000192012200923200296C08F01FFB286429
:105AD00087554346A36104B004BC9046F0BDC04660
